:020000040800F2
:1000000000800020C90900084508000847080008CA
:10001000490800084B0800084D08000800000000CF
:100020000000000000000000000000004F08000871
:100030005108000800000000530800085508000897
:10004000190A0008190A0008190A0008190A000804
:10005000190A0008190A0008190A0008190A0008F4
:10006000190A0008190A0008190A0008190A0008E4
:10007000AD040008D1040008190A0008190A000894
:10008000190A0008190A0008190A0008190A0008C4
:1000900000000000190A0008190A0008190A0008DF
:1000A000190A0008190A0008190A0008190A0008A4
:1000B000190A0008190A0008190A0008190A000894
:1000C000190A0008190A0008190A0008190A000884
:1000D00055090008190A0008190A0008190A000839
:1000E000190A0008190A0008190A0008190A000864
:1000F000190A00080000000000000000190A0008AA
:10010000190A0008190A0008190A0008190A000843
:10011000190A0008190A0008190A0008190A000833
:10012000190A0008190A0008190A0008190A000823
:08013000190A0008190A000871
:1001380010B5054C237833B9044B13B10448AFF319
:1001480000800123237010BD68000020000000001B
:100158008014000808B5034B1BB103490348AFF3EB
:10016800008008BD000000006C000020801400081A
:100178000B4B5A68002307E0801A0A4A1268B3FB3F
:10018800F2FC02FB1C330A46054949688A1A1344E3
:10019800044A1268B3FBF2F29042EDD8704700BFF0
:1001A800001000E08400002010B504E04FF47A70DD
:1001B800FFF7DEFF2046441E0028F7D110BD0000DF
:1001C8000A4B1B680A4AA2FB03239B0C094A1360CB
:1001D800094AD2F8FC3043F08073C2F8FC30A2F52B
:1001E8005D42136843F0010313607047000000206C
:1001F80083DE1B438400002000ED00E082B04FF056
:10020800B043DA6C42F00102DA64DA6C02F00102FF
:100218000192019ADA6C42F00202DA64DB6C03F0B4
:1002280002030093009B02B07047000010B44FF027
:10023800B042936C43F004039364936C43F001035E
:1002480093647648C368764B002183F80C134FF407
:1002580080541C60C06883F80D134FF40051196076
:10026800D2F8883023F44043C2F88830D36C43F086
:100278000103D364D36C43F00203D3644FF090437B
:10028800196821F040411960196841F0004119606E
:10029800996841F040419960596841F400415960BA
:1002A800D96841F08041D960596A01F070415962BA
:1002B800596A41F08041596203F58063196821F059
:1002C80040411960196841F000411960996841F08E
:1002D80040419960596841F400415960D96841F03A
:1002E8008041D960596A01F070415962596A41F0F8
:1002F80080415962936D43F480039365494BD3F869
:10030800042822F07F02C3F80428D3F8042842F016
:100318000E02C3F80428DA6942F01002DA61DA69D9
:1003280022F44052DA61DA6922F02002DA61DA69ED
:1003380022F04002DA61DA6942F08002DA61DA69B1
:1003480022F44072DA61DA6922F44062DA61364AEC
:100358005A62DA6942F00202DA61D3F8082822F018
:100368007F02C3F80828D3F8082842F00D02C3F822
:1003780008281A6B22F010021A631A6B22F44052F2
:100388001A631A6B22F020021A631A6B22F04002D9
:100398001A631A6B42F080021A631A6B22F44072D5
:1003A8001A631A6B22F440621A63204A9A631A6B22
:1003B80042F002021A63A3F5D4335A6842F000727D
:1003C8005A60DA6822F40042DA601A6822F40022DD
:1003D8001A601A6822F400321A601A6822F00102C0
:1003E8001A601A6822F480521A601A6822F470623D
:1003F8001A600F4A1A611A6842F001021A609A6874
:1004080022F400429A605A6822F400425A601A683C
:1004180042F480421A6010BC704700BF00ED00E053
:1004280000E100E000000240285800402458004045
:100438005D3E302082B08DF80700184BDA6922F053
:100448000102DA6101221A620DF107029A62DA6981
:1004580042F00102DA61A3F5D4335A6842F04E0241
:100468005A605A6822F480625A605A6822F47F02FD
:100478005A605A6842F480325A605A6842F00072F0
:100488005A605A6842F400525A60054B1B78002B98
:10049800FBD0034B00221A7002B0704700000240E4
:1004A80089000020064B1B6813F0200F07D0044A70
:1004B800536843F020035360024B01221A707047BF
:1004C8000000024089000020064B1B6813F4007FDF
:1004D80007D0044A536843F400735360024B012267
:1004E8001A707047000002408800002008B540F0EC
:1004F8000800FFF79FFF08BD10B5044640F0040050
:10050800FFF7F4FF0120FFF733FE04F0FB00FFF7CD
:10051800EDFF3220FFF72CFE10BD10B50446FFF7A3
:10052800E5FF2046FFF7E8FF10BD38B50D4600F09F
:10053800F0030401E4B243EA0100FFF7EEFF44EAE6
:100548000500FFF7EAFF38BD08B500210120FFF7D5
:10055800ECFF4FF4FA60FFF70BFE08BD08B5002169
:100568000220FFF7E2FF4FF4FA60FFF701FE08BD33
:1005780010B584B084468E460C4B0FCB04AC04E90E
:100588000F00BEF1040F01D94FF0030E04AB03EBCB
:100598008E0E5EF8100C604440B260F07F000021BF
:1005A800C0B2FFF7C2FF04B010BD00BF9814000826
:1005B80008B5054B187840F004001870002140F089
:1005C8000800FFF7B2FF08BD8B00002008B5002027
:1005D800024B1870FFF78AFF08BD00BF8A00002091
:1005E80008B5034B08221A700020FFF77FFF08BDEB
:1005F8008A00002070B5264D00242C7008262E7025
:100608003220FFF7D1FD3046FFF770FF4FF47A70C4
:10061800FFF7CAFD3020FFF780FF41F29410FFF783
:10062800A7FD3020FFF779FF41F29410FFF7A0FDF6
:100638003020FFF772FF9620FFF79AFD2020FFF782
:100648006CFF2878214640F02000FFF76EFF114B21
:1006580007221A70FFF7ACFFFFF776FF0E4B022256
:100668001A7021460620FFF760FFFFF777FF0AE0C0
:10067800FFF7B6FFFA20FFF797FDFFF7A7FFFA206D
:10068800FFF792FD0134022CF2DDFFF7A9FF70BDE0
:100698008C0000208B0000208D00002010B504463F
:1006A80003E001340121FFF740FF20780028F8D14A
:1006B80010BD000010B52B4A136823F0070343F060
:1006C80002031360274B1B6803F00703022BF9D1C1
:1006D800254A136823F4C06343F4007313604FF092
:1006E800B042136843F0010313604FF0B0431B6836
:1006F80013F0020FF9D04FF0B0431A6842F0080225
:100708001A601A6822F0F00242F0B0021A605A68C1
:1007180022F47F425A609A6822F003029A604FF0EE
:10072800B0439B6813F00C0FF9D14FF0B0439A68AF
:1007380022F0F0029A60D3F8082122F00F02C3F8E1
:1007480008219A6822F4E0629A609A6822F460525A
:100758009A60064C204600F01DF9204600F02AF960
:1007680010BD00BF0040005800040058006CDC02B7
:1007780008B52B4BD96821F4E0610904090C294A12
:100788000A43DA60DA68C2F30222C2F10703042BD3
:1007980028BF04231946131D062B3ED9033A4FF0F0
:1007A800FF338B40DB4303F00F0393401B01DBB2A5
:1007B8001B4A82F82330FFF77DFFFFF701FDFFF7A3
:1007C8001DFD00F06FF8FFF731FDFFF713FFFFF78E
:1007D80007FF00210320FFF7CBFE1348FFF75EFF5A
:1007E80001210020FFF7C4FE1048FFF757FF022140
:1007F8000020FFF7BDFE0E48FFF750FF0321012040
:10080800FFF7B6FE0B48FFF749FF0B4800F09CF9CD
:100818004FF47A70FFF7C8FCF7E70022BFE700BF84
:1008280000ED00E00003FA05A8140008B814000859
:10083800CC140008E4140008F8140008FEE7FEE7EA
:10084800FEE7FEE7FEE7704770477047704770B5F0
:100858000C461646002506E0AFF30080214601F855
:10086800010B01350C46B542F6DB304670BD70B55C
:100878000C461646002504E014F8010B00F082F837
:100888000135B542F8DB304670BD4FF0FF30704798
:100898004FF400534B600020704701207047002040
:1008A800704770474FF0B043DA6C42F00202DA64E6
:1008B8001A6E42F480421A66144B1A6A42F0E062D9
:1008C8001A621A6A42F0E0421A621A6822F4405226
:1008D8001A601A6822F440421A601A6842F40052F8
:1008E8001A601A6842F400421A60094BDB68094B27
:1008F800002283F8242310225A60074B40F2A112E9
:10090800DA601A6842F00D021A6070470004004865
:1009180000ED00E000E100E000380140034BDB6936
:1009280013F0400FFAD0014B98627047003801402D
:1009380008B5044B586AC0B2034B1870FFF7EEFFB6
:1009480008BD00BF003801408E00002008B50C4BE0
:10095800DB6913F0200F04D0094B1B6813F0200F3C
:100968000AD1074BDB6913F0080F04D0044A136A55
:1009780043F00803136208BDFFF7DAFFF1E700BF91
:100988000038014010B50446C0B2FFF7C7FF204643
:1009980010BD0000064BA3FB00239B09013B4FF051
:1009A800E02253610023936105231361704700BF60
:1009B800D34D6210014B1860704700BF0000002043
:1009C8000D488546FFF76DFF0C480D490D4A002379
:1009D80002E0D458C4500433C4188C42F9D30A4AEC
:1009E8000A4C002301E013600432A242FBD300F05A
:1009F80011F8FFF7BDFEFEE7008000200000002090
:100A0800680000207815000868000020A800002071
:100A1800FEE7000070B50D4D0D4C641BA4100026B8
:100A2800A64209D10B4D0C4C00F026FD641BA41006
:100A38000026A64205D170BD55F8043B98470136FB
:100A4800EEE755F8043B98470136F2E768150008C9
:100A580068150008681500086C150008024403466C
:100A6800934200D1704703F8011BF9E770B50E46B1
:100A7800054618B183690BB900F044FAAB69AC6854
:100A880013B9284600F03EFA2C4B9C4220D16C68E2
:100A9800636EDB0705D4A389980502D4A06D00F026
:100AA800CFFAA38919071DD52369DBB1013EA368D5
:100AB80016F8011F013BA36039BB002B38DA224628
:100AC8000A21284600F048F8013011D00A2511E023
:100AD8001B4B9C4201D1AC68DAE71A4B9C4208BF19
:100AE800EC68D5E72146284600F088F80028DDD0D4
:100AF8004FF0FF35636EDA0705D4A3899B0502D44E
:100B0800A06D00F09EFA284670BD002B04DAA26999
:100B18009A4206DC0A2904D023685A1C22601970FC
:100B2800C5E72246284600F017F80130BFD1DFE7B5
:100B380023680A255A1C22601D70DBE72815000867
:100B48004815000808150008024B01461868FFF709
:100B58008DBF00BF04000020F8B50E4614460546B8
:100B680018B183690BB900F0CDF9214B9C422BD108
:100B78006C68A369A360A3891A072FD523696BB38F
:100B880023692068C01A6369F6B28342374604DCD9
:100B98002146284600F022F930BBA368013BA36038
:100BA80023685A1C22601E7063690130834204D096
:100BB800A389DB0706D50A2E04D12146284600F072
:100BC8000DF988B93846F8BD0A4B9C4201D1AC688A
:100BD800CFE7094B9C4208BFEC68CAE72146284684
:100BE80000F00CF80028CBD04FF0FF37EAE700BF41
:100BF800281500084815000808150008324B70B57C
:100C08001D6806460C4625B1AB6913B9284600F0A5
:100C180079F92E4B9C420FD16C68A389B4F90C204A
:100C280019072CD4DD0611D40923336042F04003A0
:100C3800A3814FF0FF303EE0254B9C4201D1AC68C8
:100C4800EBE7244B9C4208BFEC68E6E7580712D54F
:100C5800616B41B104F14403994202D0304600F07F
:100C680057FA00236363A38923F02403A381002395
:100C7800636023692360A38943F00803A381236980
:100C88004BB9A38903F42073B3F5007F03D0214641
:100C9800304600F0FDF9A089B4F90C2010F00103EA
:100CA8000AD00023A36063695B42A361236943B947
:100CB80010F08000BAD170BD810758BF6369A36086
:100CC800F4E70020F7E700BF04000020281500081B
:100CD80048150008081500088A89F8B50546100760
:100CE8000C4657D44B68002B04DC0B6C002B01DC42
:100CF8000020F8BDE66A002EFAD0002312F48052D4
:100D08002F682B6032D0606DA3895A0705D56368B8
:100D1800C01A636B0BB1236CC01A00230246E66A43
:100D2800216A2846B047431CA38906D129681D2992
:100D38002CD8294ACA40D60728D500226260D9048F
:100D48002269226004D5421C01D12B6803B9606571
:100D5800616B2F600029CBD004F14403994202D083
:100D6800284600F0D5F900206063C2E7216A012314
:100D78002846B047411CC7D12B68002BC4D01D2B77
:100D880001D0162B01D12F60B2E7A38943F04003AD
:100D9800A381AEE70F69002FAAD093070E6808BF9A
:100DA8004B690F6018BF0023F61B8B60002E9FDD78
:100DB800216AD4F828C033463A462846E047002836
:100DC80006DCA38943F04003A3814FF0FF3090E78E
:100DD8000744361AEAE700BF0100402038B50B691E
:100DE80005460C4613B90025284638BD18B1836955
:100DF8000BB900F087F8144B9C421BD16C68B4F90E
:100E08000C30002BEFD0626ED00704D4990502D4C1
:100E1800A06D00F015F928462146FFF75DFF636EC7
:100E2800DA070546E0D4A3899B05DDD4A06D00F060
:100E380008F9D9E7054B9C4201D1AC68DFE7044BC0
:100E48009C4208BFEC68DAE7281500084815000836
:100E580008150008002310B50446C0E90033C0E9AE
:100E68000433836081814366C28183611946082205
:100E78005C30FFF7F3FD054B6362054BA362054B3E
:100E8800E362054B2462236310BD00BFF51200081E
:100E9800171300084F13000873130008014900F0E6
:100EA800AFB800BFE50D000870B568224D1E554368
:100EB8000E4605F1740100F095F9044640B1002191
:100EC800C0E900160C30A06005F16802FFF7C6FD06
:100ED800204670BD014800F0B3B800BF9000002064
:100EE800014800F0AEB800BF90000020014800F0B3
:100EF800A7B800BF91000020014800F0A2B800BFC9
:100F08009100002010B50446FFF7F0FFA3691BB15C
:100F1800BDE81040FFF7F0BFC4E912332365134B57
:100F2800134A1B68A262A34204BF0123A36120469F
:100F380000F020F86060204600F01CF8A060204611
:100F480000F018F80022E06004216068FFF782FFD3
:100F5800A06801220921FFF77DFFE0680222122123
:100F6800FFF778FF0123A361D2E700BF041500084B
:100F7800A50E0008F8B50746FFF7ACFF1E4B1E6824
:100F8800B36913B93046FFF7BDFF4836D6E90134D7
:100F9800013B03D533680BB33668F7E7B4F90C5057
:100FA800D5B9164BE36004F15800656600F047F8C0
:100FB800FFF796FFC4E90155C4E904552560A5610A
:100FC8000822294604F15C00FFF748FDC4E90D55E5
:100FD800C4E912552046F8BD6834D9E704213846DB
:100FE800FFF762FF044630600028D5D1FFF778FF8D
:100FF8000C233B60EEE700BF041500080100FFFF6B
:101008002DE9F8430646884600F148040027D4E94C
:101018000195B9F1010905D52468002CF7D13846A6
:10102800BDE8F883AB89012B07D9B5F90E30013338
:1010380003D029463046C04707436835E9E770477B
:101048007047704770B50E46B1F90E10002996B07A
:1010580014461D4608DAB6F90C3000222A601A0632
:1010680010D44FF480630EE06A4600F0A5F900281A
:10107800F1DB019A02F47042A2F500535A425A4138
:101088002A60EEE740230020236016B070BD000000
:101098008B8973B59D0706460C4607D504F14703AF
:1010A800236023610123636102B070BD01AB6A460E
:1010B800FFF7C8FF00990546304600F093F848B995
:1010C800B4F90C309A05EFD423F0030343F002037C
:1010D800A381E3E70D4BB362A389206043F080034B
:1010E800A381009B6361019B20615BB1B4F90E1081
:1010F800304600F073F928B1A38923F0030343F0C5
:101108000103A381A0890543A581CDE7A50E0008A9
:1011180038B50546002941D051F8043C0C1F002B76
:10112800B8BFE41800F07CF91D4A136833B963604E
:1011380014602846BDE8384000F078B9A34208D9C1
:10114800206821188B4201BF19685B680918216063
:10115800EDE71A465B680BB1A342FAD9116850183B
:10116800A0420BD120680144501883421160E0D19D
:1011780018685B68536001441160DAE702D90C23F0
:101188002B60D6E7206821188B4204BF19685B687A
:10119800636004BF091821605460CAE738BD00BF06
:1011A8009400002070B50E4E0C463168054611B902
:1011B80000F08CF830602146284600F087F8431C80
:1011C8000AD0C41C24F00304A04207D0211A2846E0
:1011D80000F07CF8013001D14FF0FF34204670BD9B
:1011E800980000202DE9F041CD1C25F003050835B5
:1011F8000C2D38BF0C25002D074601DBA94205D967
:101208000C233B6000263046BDE8F0812E4E00F0EE
:1012180007F933681C4634BB29463846FFF7C2FF36
:10122800431C04464DD134682646002E40D123681D
:101238003146384604EB030800F048F880453AD1B7
:10124800216803356D1A25F0030508350C2D38BFC4
:101258000C2529463846FFF7A5FF01302BD0236817
:101268002B4423600EE02268521B1ED40B2A16D989
:101278006119A342256018BF5960636808BF3160CF
:1012880062514B60384604F10B0600F0CFF826F0A7
:101298000706231DF21AB6D09B1BA350B3E762685A
:1012A800A3420CBF32605A60ECE723466468B2E799
:1012B80034467668B9E70C233B60384600F0B6F848
:1012C800A1E72560DEE700BF9400002038B5064D91
:1012D8000023044608462B6000F0C0F8431C02D1E6
:1012E8002B6803B1236038BD9C00002010B50C4664
:1012F800B1F90E1000F0A0F80028ABBF636DA38908
:101308001B1823F48053ACBF6365A38110BD2DE97E
:10131800F0411F468B89DB0505460C46164605D568
:10132800B1F90E100223002200F068F8A389B4F97D
:101338000E1023F48053A38132463B462846BDE86D
:10134800F04100F017B810B50C46B1F90E1000F0D6
:1013580055F8431CA38915BF606523F4805343F4F3
:101368008053A38118BFA38110BDB1F90E1000F0FE
:1013780013B8000038B5074D044608461146002248
:101388002A601A46FFF773FA431C02D12B6803B18F
:10139800236038BD9C00002038B5064D0023044664
:1013A80008462B60FFF771FA431C02D12B6803B182
:1013B800236038BD9C00002038B5074D0023044643
:1013C800084611462B60FFF763FA431C02D12B68CD
:1013D80003B1236038BD00BF9C00002038B5064D1E
:1013E8000023044608462B60FFF757FA431C02D136
:1013F8002B6803B1236038BD9C00002038B5074D29
:1014080004460846114600222A601A46FFF747FAA2
:10141800431C02D12B6803B1236038BD9C00002017
:101428000148FFF70DBE00BF8F0000200148FFF7FD
:1014380008BE00BF8F00002038B5074D0446084697
:10144800114600222A601A46FFF701FA431C02D10E
:101458002B6803B1236038BD9C000020044A05496D
:101468001368002B08BF0B461844106018467047D5
:10147800A0000020A8000020F8B500BFF8BC08BCF8
:101488009E467047F8B500BFF8BC08BC9E4670473A
:10149800000000004000000014000000540000009C
:1014A80048656C6C6F2C20576F726C6421000000CB
:1014B8004A6572656D7920576F6C66652C20686582
:1014C8007265210041726475696E6F204C434D202E
:1014D800494943203230303400000000506F7765AE
:1014E80072204279204D652C20426974636821007E
:1014F80048656C6C6F20576F726C640008000020A0
:1015080000000000000000000000000000000000D3
:1015180000000000000000000000000000000000C3
:1015280000000000000000000000000000000000B3
:1015380000000000000000000000000000000000A3
:101548000000000000000000000000000000000093
:101558000000000000000000000000000000000083
:081568005D0100080000000015
:08157000390100080000000031
:1015780000093D00080000200000000028150008B0
:1015880048150008081500080000000000000000C9
:101598000000000000000000000000000000000043
:1015A8000000000000000000000000000000000033
:1015B8000000000000000000000000000000000023
:1015C8000000000000000000000000000000000013
:0815D80000000000000000000B
:04000005080009C91D
:00000001FF
