:020000040800F2
:1000000000800020ED080008690700086B07000861
:100010006D0700086F070008710700080000000066
:10002000000000000000000000000000730700084E
:10003000750700080000000077070008790700082E
:100040003D0900083D0900083D0900083D09000878
:100050003D0900083D0900083D0900083D09000868
:100060003D0900083D0900083D090008CD040008CD
:10007000C9050008ED0500083D0900083D09000814
:100080003D0900083D090008F10400083D09000889
:10009000000000003D0900083D0900083D09000876
:1000A0003D0900083D0900083D0900083D09000818
:1000B0003D0900083D0900083D0900083D09000808
:1000C0003D0900083D0900083D0900083D090008F8
:1000D000790800083D0900083D0900083D090008AD
:1000E0003D0900083D0900083D0900083D090008D8
:1000F0003D09000800000000000000003D09000864
:100100003D0900083D0900083D0900083D090008B7
:100110003D0900083D0900083D0900083D090008A7
:100120003D0900083D0900083D0900083D09000897
:080130003D0900083D0900082B
:1001400010B5054C237833B9044B13B10448AFF311
:1001500000800123237010BD680000200000000013
:10016000C018000808B5034B1BB103490348AFF39F
:10017000008008BD000000006C000020C0180008CE
:1001800001F0FF01102A2BDB10F0070F08D010F848
:10019000013B013A8B422DD010F0070F42B3F6D14C
:1001A000F0B441EA012141EA014122F007047FF065
:1001B00000070023F0E80256083C85EA010586EABC
:1001C000010685FA47F5A3FA87F586FA47F6A5FAF8
:1001D00087F68EB9EED1F0BC01F0FF0102F0070204
:1001E00032B110F8013B013A83EA010313B1F8D1AF
:1001F0000020704701387047002D06BF3546033890
:10020000073815F0010F07D1013015F4807F02BFC8
:10021000013015F4C03F0130F0BC0138704700BF19
:1002200010B5144CA36823F00043A360A36823F027
:100230000203A360A36823F00103A360A36823F073
:100240000403A360A36823F01003A360A36843F032
:100250008053A360142000F059F9A36843F00043D1
:10026000A360044B9B68002BFBDB024BD3F8B4006C
:10027000C0B210BD0024014010B54FF0B0439A6CDD
:1002800042F004029A649A6C42F001029A647C4A39
:10029000D2687C4A002082F80B034FF400611160A1
:1002A000D96C41F00201D964196E41F400711966EC
:1002B000754B196821F440711960196841F4407157
:1002C0001960D96821F44071D960704BD3F80018D7
:1002D00021F07F01C3F80018D3F8001841F00501A0
:1002E000C3F80018996821F010019960996821F409
:1002F00040519960996821F020019960996821F036
:1003000040019960996841F080019960996821F4F1
:1003100040719960996821F4406199605C49196164
:100320005C4959610121D960996841F002019960E5
:10033000996841F00101996082F812034FF480231B
:100340001360554B9A6822F001029A601A6942F0D4
:1003500080421A61DA6822F01802DA60DA6822F064
:100360002002DA60DA6822F40042DA60DA6842F4E5
:100370000012DA60484B1B6813F4005FFAD0464C59
:10038000236843F400532360E36823F44063E3608D
:10039000E36823F48033E360E36823F40053E3600D
:1003A000E36823F00203E360E36823F00103E36002
:1003B000E36823F48053E360A36823F00043A36061
:1003C000A36823F00203A360A36823F00103A360E2
:1003D000A36823F00403A360A36823F01003A360C1
:1003E000A36843F08053A360142000F08FF82369C2
:1003F00023F001032361636923F0070363616369E9
:1004000023F070036361636823F00403636063682F
:1004100023F008036360236923F000532361A36A78
:1004200043F00303A362A36A43F47F63A3621A4BFE
:100430001B6813F4005FFAD0174C236843F4005391
:100440002360636923F400636361636843F010030E
:100450006360FFF7E5FEE36843F00103E3604020DB
:1004600000F054F8236843F001032360A36843F0CD
:100470000103A360084B1B6813F0010FFAD010BDF5
:1004800000ED00E000E100E0000400480000024050
:100490004024014086000020002401400A4B9B6854
:1004A00013F0010F0ED0084B9B6813F0020F09D117
:1004B000054B9B6813F0040F04D1034A936843F083
:1004C00004039360704700BF00240140064B1B6883
:1004D00013F0020F07D0044A536843F0010353603E
:1004E000024B01221A707047000002408400002075
:1004F000054B1B6813F0100F04D0034A136843F038
:1005000010031360704700BF002401400B4B5A6872
:10051000002307E0801A0A4A1268B3FBF2FC02FBD0
:100520001C330A46054949688A1A1344044A12686A
:10053000B3FBF2F29042EDD8704700BF001000E02C
:100540008800002010B504E04FF47A70FFF7DEFF5A
:100550002046441E0028F7D110BD00000A4B1B683E
:100560000A4AA2FB03239B0C094A1360094AD2F8EA
:10057000FC3043F08073C2F8FC30A2F55D42136892
:1005800043F00103136070470000002083DE1B432B
:100590008800002000ED00E082B04FF0B043DA6C3C
:1005A00042F00102DA64DA6C02F001020192019A6F
:1005B000DA6C42F00202DA64DB6C03F002030093AF
:1005C000009B02B070470000064B1B6813F0200F21
:1005D00007D0044A536843F020035360024B0122C2
:1005E0001A707047000002408D000020064B1B6807
:1005F00013F4007F07D0044A536843F40073536038
:10060000024B01221A707047000002408C0000204B
:1006100010B52B4A136823F0070343F0020313605D
:10062000274B1B6803F00703022BF9D1254A1368F7
:1006300023F4C06343F4007313604FF0B0421368B7
:1006400043F0010313604FF0B0431B6813F0020F37
:10065000F9D04FF0B0431A6842F008021A601A68E5
:1006600022F0F00242F0B0021A605A6822F47F428F
:100670005A609A6822F003029A604FF0B0439B6878
:1006800013F00C0FF9D14FF0B0439A6822F0F0024A
:100690009A60D3F8082122F00F02C3F808219A6863
:1006A00022F4E0629A609A6822F460529A60064CE2
:1006B000204600F005F9204600F012F910BD00BFF9
:1006C0000040005800040058006CDC0208B5214BC3
:1006D000D96821F4E0610904090C1F4A0A43DA6071
:1006E000DA68C2F30222C2F10703042B28BF0423F5
:1006F0001946131D062B17D9033A4FF0FF338B40D1
:10070000DB4303F00F0393401B01DBB2114A82F875
:100710002330FFF77DFFFFF721FFFFF73DFFFFF7D6
:10072000ABFD00F063F805E00022E6E74FF47A70D5
:10073000FFF708FFFFF7B2FE084B1B78002BF5D13F
:10074000064B00221A70064B1988064800F024F95F
:10075000F2E700BF00ED00E00003FA05840000208E
:1007600086000020D8180008FEE7FEE7FEE7FEE757
:10077000FEE7704770477047704770B50C461646E5
:10078000002506E0AFF30080214601F8010B01359A
:100790000C46B542F6DB304670BD70B50C461646C9
:1007A000002504E014F8010B00F082F80135B54291
:1007B000F8DB304670BD4FF0FF3070474FF4005308
:1007C0004B60002070470120704700207047704741
:1007D000034B5A6A034B1A70034B01221A7070477D
:1007E000003801408E0000208F0000204FF0B04301
:1007F000DA6C42F00202DA641A6E42F480421A663F
:10080000144B1A6A42F0E0621A621A6A42F0E0423D
:100810001A621A6822F440521A601A6822F440429E
:100820001A601A6842F400521A601A6842F40042D0
:100830001A60094BDB68094B002283F8242310223D
:100840005A60074B40F2A112DA601A6842F00D02BA
:100850001A6070470004004800ED00E000E100E08D
:1008600000380140034BDB6913F0400FFAD0014B15
:10087000986270470038014008B50C4BDB6913F0F3
:10088000200F04D0094B1B6813F0200F0AD1074B2F
:10089000DB6913F0080F04D0044A136A43F008031D
:1008A000136208BDFFF794FFF1E700BF0038014075
:1008B00010B50446C0B2FFF7D5FF204610BD0000BA
:1008C000064BA3FB00239B09013B4FF0E022536141
:1008D0000023936105231361704700BFD34D62105D
:1008E000014B1860704700BF000000200D4885468E
:1008F000FFF76DFF0C480D490D4A002302E0D45864
:10090000C4500433C4188C42F9D30A4A0A4C002359
:1009100001E013600432A242FBD300F011F8FFF7AC
:10092000D5FEFEE7008000200000002068000020C7
:100930009019000868000020A8000020FEE70000D1
:1009400070B50D4D0D4C641BA4100026A64209D1B4
:100950000B4D0C4C00F0B4FF641BA4100026A64203
:1009600005D170BD55F8043B98470136EEE755F8C0
:10097000043B98470136F2E7801900088019000807
:10098000801900088419000802440346934200D1EC
:10099000704703F8011BF9E70FB40A4B13B51C6845
:1009A00024B1A36913B9204600F066F805AB049A98
:1009B000A1680193204600F0BBF902B0BDE81040E9
:1009C00004B0704704000020002310B50446C0E9BD
:1009D0000033C0E90433836081814366C28183614F
:1009E000194608225C30FFF7CFFF054B6362054BC9
:1009F000A362054BE362054B2462236310BD00BF75
:100A0000D9120008FB12000833130008571300081E
:100A1000014900F0AFB800BF2916000870B5682280
:100A20004D1E55430E4605F1740100F0E5F80446ED
:100A300040B10021C0E900160C30A06005F1680249
:100A4000FFF7A2FF204670BD014800F0B3B800BF19
:100A500091000020014800F0AEB800BF91000020D6
:100A6000014800F0A7B800BF92000020014800F044
:100A7000A2B800BF9200002010B50446FFF7F0FFB7
:100A8000A3691BB1BDE81040FFF7F0BFC4E9123302
:100A90002365134B134A1B68A262A34204BF0123C0
:100AA000A361204600F020F86060204600F01CF8AA
:100AB000A060204600F018F80022E0600421606881
:100AC000FFF782FFA06801220921FFF77DFFE068A0
:100AD00002221221FFF778FF0123A361D2E700BFB2
:100AE000E4180008110A0008F8B50746FFF7ACFF44
:100AF0001E4B1E68B36913B93046FFF7BDFF483679
:100B0000D6E90134013B03D533680BB33668F7E708
:100B1000B4F90C50D5B9164BE36004F15800656682
:100B200000F047F8FFF796FFC4E90155C4E9045502
:100B30002560A5610822294604F15C00FFF724FF27
:100B4000C4E90D55C4E912552046F8BD6834D9E70B
:100B500004213846FFF762FF044630600028D5D1F3
:100B6000FFF778FF0C233B60EEE700BFE4180008B6
:100B70000100FFFF2DE9F8430646884600F14804CE
:100B80000027D4E90195B9F1010905D52468002CA5
:100B9000F7D13846BDE8F883AB89012B07D9B5F901
:100BA0000E30013303D029463046C047074368352D
:100BB000E9E770477047704770B50E4E0C463168D4
:100BC000054611B900F078FB30602146284600F058
:100BD00073FB431C0AD0C41C24F00304A04207D0BA
:100BE000211A284600F068FB013001D14FF0FF3494
:100BF000204670BD980000202DE9F041CD1C25F065
:100C0000030508350C2D38BF0C25002D074601DBE8
:100C1000A94205D90C233B6000263046BDE8F0818F
:100C20002E4E00F0B5FD33681C4634BB29463846CD
:100C3000FFF7C2FF431C04464DD134682646002E00
:100C400040D123683146384604EB030800F034FBFA
:100C500080453AD1216803356D1A25F00305083522
:100C60000C2D38BF0C2529463846FFF7A5FF01306B
:100C70002BD023682B4423600EE02268521B1ED425
:100C80000B2A16D96119A342256018BF5960636801
:100C900008BF316062514B60384604F10B0600F02A
:100CA0007DFD26F00706231DF21AB6D09B1BA3502C
:100CB000B3E76268A3420CBF32605A60ECE7234698
:100CC0006468B2E734467668B9E70C233B6038467F
:100CD00000F064FDA1E72560DEE700BF940000207E
:100CE0009368013B002B10B4936007DA9469A34228
:100CF00001DB0A2902D110BC00F032BB1368581C7A
:100D000010601970084610BC7047F8B506460F46CB
:100D10001446D518AC4201D1002007E014F8011B9D
:100D20003A463046FFF7DCFF431CF3D1F8BD000024
:100D30002DE9F04F0D469DB014469846064618B171
:100D400083690BB9FFF798FE894B9D421BD17568EB
:100D50006B6ED90705D4AB899A0502D4A86DFFF74D
:100D600029FFAB891B0701D52B69EBB92946304612
:100D700000F05AFBC0B16B6EDC070ED54FF0FF30B0
:100D80001DB0BDE8F08F7B4B9D4201D1B568DFE718
:100D9000794B9D4208BFF568DAE7AB899805EDD439
:100DA000A86DFFF708FFE9E70023099320238DF8DA
:100DB0002930CDF80C803023DFF8C0818DF82A303F
:100DC0004FF0010923469A4613F8012B0AB1252A50
:100DD000F9D1BAEB040B0BD05B46224629463046CC
:100DE000FFF793FF013000F0AA80099A5A44099254
:100DF0009AF80030002B00F0A28000234FF0FF3261
:100E0000CDE905230AF1010A049307938DF85330C5
:100E10001A935446052214F8011B5848FFF7B0F9FD
:100E2000049AD8B9D10644BF20238DF85330130754
:100E300044BF2B238DF853309AF800302A2B15D05D
:100E4000079A544600204FF00A0C214611F8013B46
:100E5000303B092B4ED9B0B1079214E0A0EB080348
:100E600009FA03F313430493A246D2E7039B191D27
:100E70001B680391002BBBBF5B4242F00202079349
:100E80000793B8BF049223782E2B0CD163782A2BBA
:100E900035D1039B1A1D1B680392002BB8BF4FF07E
:100EA000FF3302340593DFF8D8A02178032250469F
:100EB000FFF766F940B14023A0EB0A0003FA00F007
:100EC000049B03430134049314F8011B2D488DF84F
:100ED00028100622FFF754F900283FD02A4B1BBBED
:100EE000039B073323F0070308330393099B3B4419
:100EF000099367E70CFB02320C460120A5E70023AB
:100F00000134059319464FF00A0C204610F8012BC6
:100F1000303A092A03D9002BC5D00591C3E70CFB51
:100F2000012104460123F0E703AB00932A46174B47
:100F300004A93046AFF300800746781CD6D16B6E0B
:100F4000D90705D4AB899A0502D4A86DFFF733FE03
:100F5000AB895B063FF512AF099811E703AB00932D
:100F60002A460A4B04A9304600F080F8E4E700BFA7
:100F70000819000828190008E8180008481900088E
:100F80004E19000852190008000000000B0D00085F
:100F90002DE9F047164699468A680B69DDF82080EE
:100FA0009342B8BF1346336091F8432007460C467E
:100FB0000AB1013333602368990642BF33680233B4
:100FC0003360256815F0060506D104F1190AE368B7
:100FD00032689B1AAB4226DC94F84320131E226829
:100FE00018BF012392062BD404F143024946384628
:100FF000C04701301ED02368E568326803F006035D
:10100000042B08BFAD1AA36822690CBF25EAE57559
:1010100000259342C4BF9B1AED1800261A34B5422E
:101020001AD1002008E00123524649463846C047FD
:10103000013003D14FF0FF30BDE8F0870135C6E73E
:10104000E1185A1C302081F84300224494F84510DE
:1010500082F843100233C7E7012322464946384647
:10106000C0470130E6D00136D9E700002DE9FF473F
:101070000F7E0C9D782F914680460C469A4601F1D2
:10108000430207D8622F0AD8002F00F0D880582FCB
:1010900000F0A38004F1420584F842703AE0A7F121
:1010A0006303152BF6D801A151F823F005110008B0
:1010B00019110008951000089510000895100008F7
:1010C00095100008191100089510000895100008E7
:1010D0009510000895100008251200084911000815
:1010E0000712000895100008951000084712000824
:1010F0009510000849110008951000089510000887
:101100000F1200082B681A1D1B682A6004F14205A3
:1011100084F842300123A3E020682968060601F123
:1011200004030AD50E682B60002E03DA2D237642C5
:1011300084F843305E480A2319E00E682B6010F0F3
:10114000400F18BF36B2EFE72B682068191D2960E1
:10115000010601D51E6802E04606FBD51E885448EC
:101160006F2F0CBF08230A23002184F84310656801
:10117000A560002DA2BF216821F0040121600EB9F5
:10118000002D4DD01546B6FBF3F103FB1167C75D8B
:1011900005F8017D3746BB420E46F4D9082B0BD12A
:1011A0002368DE0708D5236961689942DEBF3023D2
:1011B00005F8013C05F1FF35521B2261CDF800A076
:1011C0004B4603AA21464046FFF7E2FE01304CD1D0
:1011D0004FF0FF3004B0BDE8F087354881F8457026
:1011E0002968236851F8046B29601D0614D5DF07B0
:1011F00044BF43F0200323601EB9236823F020037B
:1012000023601023B0E7236843F020032360782392
:10121000284884F84530E3E7590648BFB6B2E6E708
:101220001546BBE72B6826686169181D28603506DE
:101230001B6801D5196002E07006FBD519800023F8
:1012400023611546BAE72B681A1D2A601D6862687B
:1012500000212846FEF794FF08B1401B60606368D8
:101260002361002384F84330A8E723692A464946CE
:101270004046D0470130ABD023689B0713D4E068C9
:10128000039B9842B8BF1846A4E70123324649465B
:101290004046D04701309BD00135E36803995B1A83
:1012A000AB42F2DCEBE7002504F11906F5E700BFDD
:1012B000591900086A19000838B5064D002304467C
:1012C00008462B6000F0EEFA431C02D12B6803B1F4
:1012D000236038BD9C00002010B50C46B1F90E10FB
:1012E00000F0ACFA0028ABBF636DA3891B1823F490
:1012F0008053ACBF6365A38110BD2DE9F0411F464B
:101300008B89DB0505460C46164605D5B1F90E104E
:101310000223002200F0C4F9A389B4F90E1023F4CB
:101320008053A38132463B462846BDE8F04100F099
:1013300069B810B50C46B1F90E1000F0B1F9431CB4
:10134000A38915BF606523F4805343F48053A381C0
:1013500018BFA38110BDB1F90E1000F0D3B8000082
:10136000F8B50E461446054618B183690BB9FFF768
:1013700083FB214B9C422BD16C68A369A360A3899A
:101380001A072FD523696BB323692068C01A6369D4
:10139000F6B28342374604DC2146284600F044F981
:1013A00030BBA368013BA36023685A1C22601E70F7
:1013B00063690130834204D0A389DB0706D50A2E76
:1013C00004D12146284600F02FF988B93846F8BDE7
:1013D0000A4B9C4201D1AC68CFE7094B9C4208BF45
:1013E000EC68CAE72146284600F01EF80028CBD05A
:1013F0004FF0FF37EAE700BF081900082819000876
:10140000E818000838B5074D044608461146002282
:101410002A601A46FFF7C1F9431C02D12B6803B1B9
:10142000236038BD9C000020324B70B51D68064615
:101430000C4625B1AB6913B92846FFF71DFB2E4BAF
:101440009C420FD16C68A389B4F90C2019072CD4E5
:10145000DD0611D40923336042F04003A3814FF02D
:10146000FF303EE0254B9C4201D1AC68EBE7244BBA
:101470009C4208BFEC68E6E7580712D5616B41B1A2
:1014800004F14403994202D0304600F08DF9002364
:101490006363A38923F02403A3810023636023698A
:1014A0002360A38943F00803A38123694BB9A3896F
:1014B00003F42073B3F5007F03D02146304600F0DB
:1014C00027F9A089B4F90C2010F001030AD00023F9
:1014D000A36063695B42A361236943B910F0800094
:1014E000BAD170BD810758BF6369A360F4E70020DB
:1014F000F7E700BF040000200819000828190008B9
:10150000E818000838B5064D0023044608462B604D
:10151000FFF751F9431C02D12B6803B1236038BD9A
:101520009C0000208A89F8B5054610070C4657D460
:101530004B68002B04DC0B6C002B01DC0020F8BD99
:10154000E66A002EFAD0002312F480522F682B6036
:1015500032D0606DA3895A0705D56368C01A636BE2
:101560000BB1236CC01A00230246E66A216A2846A2
:10157000B047431CA38906D129681D292CD8294AC4
:10158000CA40D60728D500226260D90422692260A9
:1015900004D5421C01D12B6803B96065616B2F60D3
:1015A0000029CBD004F14403994202D0284600F030
:1015B000FBF800206063C2E7216A01232846B04798
:1015C000411CC7D12B68002BC4D01D2B01D0162B7A
:1015D00001D12F60B2E7A38943F04003A381AEE7B6
:1015E0000F69002FAAD093070E6808BF4B690F60E0
:1015F00018BF0023F61B8B60002E9FDD216AD4F8F4
:1016000028C033463A462846E047002806DCA3892E
:1016100043F04003A3814FF0FF3090E70744361AB0
:10162000EAE700BF0100402038B50B6905460C46CB
:1016300013B90025284638BD18B183690BB9FFF7E7
:101640001BFA144B9C421BD16C68B4F90C30002B74
:10165000EFD0626ED00704D4990502D4A06DFFF7D5
:10166000A9FA28462146FFF75DFF636EDA070546B3
:10167000E0D4A3899B05DDD4A06DFFF79CFAD9E7E0
:10168000054B9C4201D1AC68DFE7044B9C4208BF8C
:10169000EC68DAE70819000828190008E8180008BB
:1016A00038B5074D04460846114600222A601A46FE
:1016B000FFF78BF8431C02D12B6803B1236038BDC0
:1016C0009C00002070B50E46B1F90E10002996B0AE
:1016D00014461D4608DAB6F90C3000222A601A06B4
:1016E00010D44FF480630EE06A4600F0B9F8002889
:1016F000F1DB019A02F47042A2F500535A425A41BA
:101700002A60EEE740230020236016B070BD000081
:101710008B8973B59D0706460C4607D504F1470330
:10172000236023610123636102B070BD01AB6A468F
:10173000FFF7C8FF009905463046FFF75DFA48B944
:10174000B4F90C309A05EFD423F0030343F00203FD
:10175000A381E3E70D4BB362A389206043F08003CC
:10176000A381009B6361019B20615BB1B4F90E1002
:10177000304600F087F828B1A38923F0030343F033
:101780000103A381A0890543A581CDE7110A0008C3
:101790000148FFF70FBA00BF900000200148FFF793
:1017A0000ABA00BF9000002038B50546002941D094
:1017B00051F8043C0C1F002BB8BFE418FFF7E8FFFA
:1017C0001D4A136833B9636014602846BDE8384089
:1017D000FFF7E4BFA34208D9206821188B4201BF5C
:1017E00019685B6809182160EDE71A465B680BB160
:1017F000A342FAD911685018A0420BD120680144C5
:10180000501883421160E0D118685B68536001444E
:101810001160DAE702D90C232B60D6E72068211883
:101820008B4204BF19685B68636004BF09182160BC
:101830005460CAE738BD00BF9400002038B5074D9A
:1018400004460846114600222A601A46FEF795FF14
:10185000431C02D12B6803B1236038BD9C000020DB
:1018600038B5074D00230446084611462B60FEF7A5
:10187000A5FF431C02D12B6803B1236038BD00BF14
:101880009C00002038B5064D0023044608462B6016
:10189000FEF799FF431C02D12B6803B1236038BDCA
:1018A0009C000020044A05491368002B08BF0B4622
:1018B0001844106018467047A0000020A8000020BF
:1018C000F8B500BFF8BC08BC9E467047F8B500BF2D
:0818D000F8BC08BC9E467047FD
:1018D800446174613A2025750A0000000800002060
:1018E80000000000000000000000000000000000F0
:1018F80000000000000000000000000000000000E0
:1019080000000000000000000000000000000000CF
:1019180000000000000000000000000000000000BF
:1019280000000000000000000000000000000000AF
:10193800000000000000000000000000000000009F
:10194800232D302B2000686C4C00656667454647A0
:101958000030313233343536373839414243444523
:101968004600303132333435363738396162636492
:0819780065660000000000009C
:081980006501000800000000F1
:0819880041010008000000000D
:1019900000093D00080000200000000008190008B0
:1019A00028190008E81800080000000000000000E6
:1019B0000000000000000000000000000000000027
:1019C0000000000000000000000000000000000017
:1019D0000000000000000000000000000000000007
:1019E00000000000000000000000000000000000F7
:0819F0000000000000000000EF
:04000005080008EDFA
:00000001FF
