:020000040800F2
:10000000008000206D0800082D0800082F08000857
:100010003108000833080008350800080000000017
:100020000000000000000000000000003708000889
:1000300039080008000000003B0800083D080008DF
:10004000BD080008BD080008BD080008BD0800087C
:10005000BD080008BD080008BD080008BD0800086C
:10006000BD080008BD080008BD080008BD0800085C
:10007000AD040008D1040008BD080008BD08000850
:10008000BD080008BD080008BD080008BD0800083C
:1000900000000000BD080008BD080008BD080008F9
:1000A000BD080008BD080008BD080008BD0800081C
:1000B000BD080008BD080008BD080008BD0800080C
:1000C000BD080008BD080008BD080008BD080008FC
:1000D000BD080008BD080008BD080008BD080008EC
:1000E000BD080008BD080008BD080008BD080008DC
:1000F000BD0800080000000000000000BD08000866
:10010000BD080008BD080008BD080008BD080008BB
:10011000BD080008BD080008BD080008BD080008AB
:10012000BD080008BD080008BD080008BD0800089B
:08013000BD080008BD0800082D
:1001380010B5054C237833B9044B13B10448AFF319
:1001480000800123237010BD08000020000000007B
:100158000809000808B5034B1BB103490348AFF36E
:10016800008008BD000000000C00002008090008FD
:100178000B4B5A68002307E0801A0A4A1268B3FB3F
:10018800F2FC02FB1C330A46054949688A1A1344E3
:10019800044A1268B3FBF2F29042EDD8704700BFF0
:1001A800001000E02400002010B504E04FF47A703D
:1001B800FFF7DEFF2046441E0028F7D110BD0000DF
:1001C8000A4B1B680A4AA2FB03239B0C094A1360CB
:1001D800094AD2F8FC3043F08073C2F8FC30A2F52B
:1001E8005D42136843F0010313607047000000206C
:1001F80083DE1B432400002000ED00E082B04FF0B6
:10020800B043DA6C42F00102DA64DA6C02F00102FF
:100218000192019ADA6C42F00202DA64DB6C03F0B4
:1002280002030093009B02B07047000010B44FF027
:10023800B042936C43F004039364936C43F001035E
:1002480093647648C368764B002183F80C134FF407
:1002580080541C60C06883F80D134FF40051196076
:10026800D2F8883023F44043C2F88830D36C43F086
:100278000103D364D36C43F00203D3644FF090437B
:10028800196821F040411960196841F0004119606E
:10029800996841F040419960596841F400415960BA
:1002A800D96841F08041D960596A01F070415962BA
:1002B800596A41F08041596203F58063196821F059
:1002C80040411960196841F000411960996841F08E
:1002D80040419960596841F400415960D96841F03A
:1002E8008041D960596A01F070415962596A41F0F8
:1002F80080415962936D43F480039365494BD3F869
:10030800042822F07F02C3F80428D3F8042842F016
:100318000E02C3F80428DA6942F01002DA61DA69D9
:1003280022F44052DA61DA6922F02002DA61DA69ED
:1003380022F04002DA61DA6942F08002DA61DA69B1
:1003480022F44072DA61DA6922F44062DA61364AEC
:100358005A62DA6942F00202DA61D3F8082822F018
:100368007F02C3F80828D3F8082842F00D02C3F822
:1003780008281A6B22F010021A631A6B22F44052F2
:100388001A631A6B22F020021A631A6B22F04002D9
:100398001A631A6B42F080021A631A6B22F44072D5
:1003A8001A631A6B22F440621A63204A9A631A6B22
:1003B80042F002021A63A3F5D4335A6842F000727D
:1003C8005A60DA6822F40042DA601A6822F40022DD
:1003D8001A601A6822F400321A601A6822F00102C0
:1003E8001A601A6822F480521A601A6822F470623D
:1003F8001A600F4A1A611A6842F001021A609A6874
:1004080022F400429A605A6822F400425A601A683C
:1004180042F480421A6010BC704700BF00ED00E053
:1004280000E100E000000240285800402458004045
:100438005D3E302082B08DF80700184BDA6922F053
:100448000102DA6101221A620DF107029A62DA6981
:1004580042F00102DA61A3F5D4335A6842F04E0241
:100468005A605A6822F480625A605A6822F47F02FD
:100478005A605A6842F480325A605A6842F00072F0
:100488005A605A6842F400525A60054B1B78002B98
:10049800FBD0034B00221A7002B0704700000240E4
:1004A80029000020064B1B6813F0200F07D0044AD0
:1004B800536843F020035360024B01221A707047BF
:1004C8000000024029000020064B1B6813F4007F3F
:1004D80007D0044A536843F400735360024B012267
:1004E8001A707047000002402800002008B540F04C
:1004F8000800FFF79FFF08BD10B5044640F0040050
:10050800FFF7F4FF0120FFF733FE04F0FB00FFF7CD
:10051800EDFF3220FFF72CFE10BD10B50446FFF7A3
:10052800E5FF2046FFF7E8FF10BD38B50D4600F09F
:10053800F0030401E4B243EA0100FFF7EEFF44EAE6
:100548000500FFF7EAFF38BD08B500210120FFF7D5
:10055800ECFF4FF4FA60FFF70BFE08BD08B5002169
:100568000220FFF7E2FF4FF4FA60FFF701FE08BD33
:1005780010B584B084468E460C4B0FCB04AC04E90E
:100588000F00BEF1040F01D94FF0030E04AB03EBCB
:100598008E0E5EF8100C604440B260F07F000021BF
:1005A800C0B2FFF7C2FF04B010BD00BF20090008A9
:1005B80008B5054B187840F004001870002140F089
:1005C8000800FFF7B2FF08BD2B00002008B5002087
:1005D800024B1870FFF78AFF08BD00BF2A000020F1
:1005E80008B5034B08221A700020FFF77FFF08BDEB
:1005F8002A00002070B5264D00242C7008262E7085
:100608003220FFF7D1FD3046FFF770FF4FF47A70C4
:10061800FFF7CAFD3020FFF780FF41F29410FFF783
:10062800A7FD3020FFF779FF41F29410FFF7A0FDF6
:100638003020FFF772FF9620FFF79AFD2020FFF782
:100648006CFF2878214640F02000FFF76EFF114B21
:1006580007221A70FFF7ACFFFFF776FF0E4B022256
:100668001A7021460620FFF760FFFFF777FF0AE0C0
:10067800FFF7B6FFFA20FFF797FDFFF7A7FFFA206D
:10068800FFF792FD0134022CF2DDFFF7A9FF70BDE0
:100698002C0000202B0000202D00002010B504465F
:1006A80003E001340121FFF740FF20780028F8D14A
:1006B80010BD000010B52B4A136823F0070343F060
:1006C80002031360274B1B6803F00703022BF9D1C1
:1006D800254A136823F4C06343F4007313604FF092
:1006E800B042136843F0010313604FF0B0431B6836
:1006F80013F0020FF9D04FF0B0431A6842F0080225
:100708001A601A6822F0F00242F0B0021A605A68C1
:1007180022F47F425A609A6822F003029A604FF0EE
:10072800B0439B6813F00C0FF9D14FF0B0439A68AF
:1007380022F0F0029A60D3F8082122F00F02C3F8E1
:1007480008219A6822F4E0629A609A6822F460525A
:100758009A60064C204600F06FF8204600F07CF8BE
:1007680010BD00BF0040005800040058006CDC02B7
:1007780008B5264BD96821F4E0610904090C244A1C
:100788000A43DA60DA68C2F30222C2F10703042BD3
:1007980028BF04231946131D062B35D9033A4FF0F9
:1007A800FF338B40DB4303F00F0393401B01DBB2A5
:1007B800164A82F82330FFF77DFFFFF701FDFFF7A8
:1007C8001DFDFFF733FDFFF715FFFFF709FF0021B8
:1007D8000320FFF7CDFE0F48FFF760FF012100203F
:1007E800FFF7C6FE0C48FFF759FF02210020FFF76C
:1007F800BFFE0A48FFF752FF03210120FFF7B8FEAA
:100808000748FFF74BFFFEE70022C8E700ED00E0CE
:100818000003FA05300900084009000854090008D7
:100828006C090008FEE7FEE7FEE7FEE7FEE7704713
:100838007047704770477047064BA3FB00239B091E
:10084800013B4FF0E02253610023936105231361BC
:10085800704700BFD34D6210014B1860704700BF4E
:10086800000000200D488546FFF7E5FF0C480D49BC
:100878000D4A002302E0D458C4500433C4188C42F3
:10088800F9D30A4A0A4C002301E013600432A24259
:10089800FBD300F011F8FFF76BFFFEE700800020A4
:1008A800000000200800002090090008080000202F
:1008B80030000020FEE7000070B50D4D0D4C641BA4
:1008C800A4100026A64209D10B4D0C4C00F018F8D4
:1008D800641BA4100026A64205D170BD55F8043B40
:1008E80098470136EEE755F8043B98470136F2E79A
:1008F80080090008800900088009000884090008A8
:10090800F8B500BFF8BC08BC9E467047F8B500BFF4
:08091800F8BC08BC9E467047C4
:10092000000000004000000014000000540000001F
:1009300048656C6C6F2C20576F726C64210000004E
:100940004A6572656D7920576F6C66652C20686505
:100950007265210041726475696E6F204C434D20B1
:10096000494943203230303400000000506F776531
:1009700072204279204D652C204269746368210001
:080980005D0100080000000009
:08098800390100080000000025
:0809900000093D000000000019
:040000050800086D7A
:00000001FF
